{
  "address": "0xD21802970ec8ec4c8E21661A05392ea7dF84A293",
  "abi": [
    {
      "inputs": [
        {
          "internalType": "uint256",
          "name": "_scale",
          "type": "uint256"
        },
        {
          "internalType": "address",
          "name": "_mailbox",
          "type": "address"
        }
      ],
      "stateMutability": "nonpayable",
      "type": "constructor"
    },
    {
      "inputs": [
        {
          "internalType": "uint256",
          "name": "nftPrice",
          "type": "uint256"
        },
        {
          "internalType": "uint256",
          "name": "msgValue",
          "type": "uint256"
        }
      ],
      "name": "NftPriceExceedsMsgValue",
      "type": "error"
    },
    {
      "inputs": [],
      "name": "UseInitiateCrossChainNftPurchaseFunction",
      "type": "error"
    },
    {
      "anonymous": false,
      "inputs": [
        {
          "indexed": false,
          "internalType": "uint32",
          "name": "domainId",
          "type": "uint32"
        }
      ],
      "name": "DestinationDomainIdSet",
      "type": "event"
    },
    {
      "anonymous": false,
      "inputs": [
        {
          "indexed": true,
          "internalType": "address",
          "name": "sender",
          "type": "address"
        },
        {
          "indexed": false,
          "internalType": "uint256",
          "name": "amount",
          "type": "uint256"
        }
      ],
      "name": "Donation",
      "type": "event"
    },
    {
      "anonymous": false,
      "inputs": [
        {
          "indexed": false,
          "internalType": "uint32",
          "name": "domain",
          "type": "uint32"
        },
        {
          "indexed": false,
          "internalType": "uint256",
          "name": "gas",
          "type": "uint256"
        }
      ],
      "name": "GasSet",
      "type": "event"
    },
    {
      "anonymous": false,
      "inputs": [
        {
          "indexed": false,
          "internalType": "address",
          "name": "_hook",
          "type": "address"
        }
      ],
      "name": "HookSet",
      "type": "event"
    },
    {
      "anonymous": false,
      "inputs": [
        {
          "indexed": false,
          "internalType": "uint8",
          "name": "version",
          "type": "uint8"
        }
      ],
      "name": "Initialized",
      "type": "event"
    },
    {
      "anonymous": false,
      "inputs": [
        {
          "indexed": false,
          "internalType": "address",
          "name": "_ism",
          "type": "address"
        }
      ],
      "name": "IsmSet",
      "type": "event"
    },
    {
      "anonymous": false,
      "inputs": [
        {
          "indexed": false,
          "internalType": "uint256",
          "name": "price",
          "type": "uint256"
        }
      ],
      "name": "NftSalePriceSet",
      "type": "event"
    },
    {
      "anonymous": false,
      "inputs": [
        {
          "indexed": true,
          "internalType": "address",
          "name": "previousOwner",
          "type": "address"
        },
        {
          "indexed": true,
          "internalType": "address",
          "name": "newOwner",
          "type": "address"
        }
      ],
      "name": "OwnershipTransferred",
      "type": "event"
    },
    {
      "anonymous": false,
      "inputs": [
        {
          "indexed": true,
          "internalType": "uint32",
          "name": "origin",
          "type": "uint32"
        },
        {
          "indexed": true,
          "internalType": "bytes32",
          "name": "recipient",
          "type": "bytes32"
        },
        {
          "indexed": false,
          "internalType": "uint256",
          "name": "amount",
          "type": "uint256"
        }
      ],
      "name": "ReceivedTransferRemote",
      "type": "event"
    },
    {
      "anonymous": false,
      "inputs": [
        {
          "indexed": true,
          "internalType": "uint32",
          "name": "destination",
          "type": "uint32"
        },
        {
          "indexed": true,
          "internalType": "bytes32",
          "name": "recipient",
          "type": "bytes32"
        },
        {
          "indexed": false,
          "internalType": "uint256",
          "name": "amount",
          "type": "uint256"
        }
      ],
      "name": "SentTransferRemote",
      "type": "event"
    },
    {
      "inputs": [],
      "name": "PACKAGE_VERSION",
      "outputs": [
        {
          "internalType": "string",
          "name": "",
          "type": "string"
        }
      ],
      "stateMutability": "view",
      "type": "function"
    },
    {
      "inputs": [],
      "name": "VERSION",
      "outputs": [
        {
          "internalType": "uint8",
          "name": "",
          "type": "uint8"
        }
      ],
      "stateMutability": "view",
      "type": "function"
    },
    {
      "inputs": [
        {
          "internalType": "address",
          "name": "_account",
          "type": "address"
        }
      ],
      "name": "balanceOf",
      "outputs": [
        {
          "internalType": "uint256",
          "name": "",
          "type": "uint256"
        }
      ],
      "stateMutability": "view",
      "type": "function"
    },
    {
      "inputs": [],
      "name": "destinationDomainId",
      "outputs": [
        {
          "internalType": "uint32",
          "name": "",
          "type": "uint32"
        }
      ],
      "stateMutability": "view",
      "type": "function"
    },
    {
      "inputs": [
        {
          "internalType": "uint32",
          "name": "",
          "type": "uint32"
        }
      ],
      "name": "destinationGas",
      "outputs": [
        {
          "internalType": "uint256",
          "name": "",
          "type": "uint256"
        }
      ],
      "stateMutability": "view",
      "type": "function"
    },
    {
      "inputs": [],
      "name": "domains",
      "outputs": [
        {
          "internalType": "uint32[]",
          "name": "",
          "type": "uint32[]"
        }
      ],
      "stateMutability": "view",
      "type": "function"
    },
    {
      "inputs": [
        {
          "internalType": "uint32",
          "name": "_domain",
          "type": "uint32"
        },
        {
          "internalType": "bytes32",
          "name": "_router",
          "type": "bytes32"
        }
      ],
      "name": "enrollRemoteRouter",
      "outputs": [],
      "stateMutability": "nonpayable",
      "type": "function"
    },
    {
      "inputs": [
        {
          "internalType": "uint32[]",
          "name": "_domains",
          "type": "uint32[]"
        },
        {
          "internalType": "bytes32[]",
          "name": "_addresses",
          "type": "bytes32[]"
        }
      ],
      "name": "enrollRemoteRouters",
      "outputs": [],
      "stateMutability": "nonpayable",
      "type": "function"
    },
    {
      "inputs": [
        {
          "internalType": "uint32",
          "name": "_origin",
          "type": "uint32"
        },
        {
          "internalType": "bytes32",
          "name": "_sender",
          "type": "bytes32"
        },
        {
          "internalType": "bytes",
          "name": "_message",
          "type": "bytes"
        }
      ],
      "name": "handle",
      "outputs": [],
      "stateMutability": "payable",
      "type": "function"
    },
    {
      "inputs": [],
      "name": "hook",
      "outputs": [
        {
          "internalType": "contract IPostDispatchHook",
          "name": "",
          "type": "address"
        }
      ],
      "stateMutability": "view",
      "type": "function"
    },
    {
      "inputs": [
        {
          "internalType": "address",
          "name": "_hook",
          "type": "address"
        },
        {
          "internalType": "address",
          "name": "_interchainSecurityModule",
          "type": "address"
        },
        {
          "internalType": "address",
          "name": "_owner",
          "type": "address"
        }
      ],
      "name": "initialize",
      "outputs": [],
      "stateMutability": "nonpayable",
      "type": "function"
    },
    {
      "inputs": [
        {
          "internalType": "uint256",
          "name": "_nftSalePrice",
          "type": "uint256"
        },
        {
          "internalType": "uint32",
          "name": "_destinationDomainId",
          "type": "uint32"
        }
      ],
      "name": "initializeV2",
      "outputs": [],
      "stateMutability": "nonpayable",
      "type": "function"
    },
    {
      "inputs": [
        {
          "internalType": "address",
          "name": "_hook",
          "type": "address"
        },
        {
          "internalType": "address",
          "name": "_interchainSecurityModule",
          "type": "address"
        },
        {
          "internalType": "address",
          "name": "_owner",
          "type": "address"
        },
        {
          "internalType": "uint256",
          "name": "_nftSalePrice",
          "type": "uint256"
        },
        {
          "internalType": "uint32",
          "name": "_destinationDomainId",
          "type": "uint32"
        }
      ],
      "name": "initializeV3",
      "outputs": [],
      "stateMutability": "nonpayable",
      "type": "function"
    },
    {
      "inputs": [
        {
          "internalType": "bytes32",
          "name": "_recipient",
          "type": "bytes32"
        }
      ],
      "name": "initiateCrossChainNftPurchase",
      "outputs": [
        {
          "internalType": "bytes32",
          "name": "messageId",
          "type": "bytes32"
        }
      ],
      "stateMutability": "payable",
      "type": "function"
    },
    {
      "inputs": [],
      "name": "interchainSecurityModule",
      "outputs": [
        {
          "internalType": "contract IInterchainSecurityModule",
          "name": "",
          "type": "address"
        }
      ],
      "stateMutability": "view",
      "type": "function"
    },
    {
      "inputs": [],
      "name": "localDomain",
      "outputs": [
        {
          "internalType": "uint32",
          "name": "",
          "type": "uint32"
        }
      ],
      "stateMutability": "view",
      "type": "function"
    },
    {
      "inputs": [],
      "name": "mailbox",
      "outputs": [
        {
          "internalType": "contract IMailbox",
          "name": "",
          "type": "address"
        }
      ],
      "stateMutability": "view",
      "type": "function"
    },
    {
      "inputs": [],
      "name": "nftSalePrice",
      "outputs": [
        {
          "internalType": "uint256",
          "name": "",
          "type": "uint256"
        }
      ],
      "stateMutability": "view",
      "type": "function"
    },
    {
      "inputs": [],
      "name": "owner",
      "outputs": [
        {
          "internalType": "address",
          "name": "",
          "type": "address"
        }
      ],
      "stateMutability": "view",
      "type": "function"
    },
    {
      "inputs": [
        {
          "internalType": "uint32",
          "name": "_destinationDomain",
          "type": "uint32"
        }
      ],
      "name": "quoteGasPayment",
      "outputs": [
        {
          "internalType": "uint256",
          "name": "",
          "type": "uint256"
        }
      ],
      "stateMutability": "view",
      "type": "function"
    },
    {
      "inputs": [],
      "name": "renounceOwnership",
      "outputs": [],
      "stateMutability": "nonpayable",
      "type": "function"
    },
    {
      "inputs": [
        {
          "internalType": "uint32",
          "name": "_domain",
          "type": "uint32"
        }
      ],
      "name": "routers",
      "outputs": [
        {
          "internalType": "bytes32",
          "name": "",
          "type": "bytes32"
        }
      ],
      "stateMutability": "view",
      "type": "function"
    },
    {
      "inputs": [],
      "name": "scale",
      "outputs": [
        {
          "internalType": "uint256",
          "name": "",
          "type": "uint256"
        }
      ],
      "stateMutability": "view",
      "type": "function"
    },
    {
      "inputs": [
        {
          "internalType": "uint32",
          "name": "domain",
          "type": "uint32"
        },
        {
          "internalType": "uint256",
          "name": "gas",
          "type": "uint256"
        }
      ],
      "name": "setDestinationGas",
      "outputs": [],
      "stateMutability": "nonpayable",
      "type": "function"
    },
    {
      "inputs": [
        {
          "components": [
            {
              "internalType": "uint32",
              "name": "domain",
              "type": "uint32"
            },
            {
              "internalType": "uint256",
              "name": "gas",
              "type": "uint256"
            }
          ],
          "internalType": "struct GasRouter.GasRouterConfig[]",
          "name": "gasConfigs",
          "type": "tuple[]"
        }
      ],
      "name": "setDestinationGas",
      "outputs": [],
      "stateMutability": "nonpayable",
      "type": "function"
    },
    {
      "inputs": [
        {
          "internalType": "address",
          "name": "_hook",
          "type": "address"
        }
      ],
      "name": "setHook",
      "outputs": [],
      "stateMutability": "nonpayable",
      "type": "function"
    },
    {
      "inputs": [
        {
          "internalType": "address",
          "name": "_module",
          "type": "address"
        }
      ],
      "name": "setInterchainSecurityModule",
      "outputs": [],
      "stateMutability": "nonpayable",
      "type": "function"
    },
    {
      "inputs": [
        {
          "internalType": "address",
          "name": "newOwner",
          "type": "address"
        }
      ],
      "name": "transferOwnership",
      "outputs": [],
      "stateMutability": "nonpayable",
      "type": "function"
    },
    {
      "inputs": [
        {
          "internalType": "uint32",
          "name": "",
          "type": "uint32"
        },
        {
          "internalType": "bytes32",
          "name": "",
          "type": "bytes32"
        },
        {
          "internalType": "uint256",
          "name": "",
          "type": "uint256"
        },
        {
          "internalType": "bytes",
          "name": "",
          "type": "bytes"
        },
        {
          "internalType": "address",
          "name": "",
          "type": "address"
        }
      ],
      "name": "transferRemote",
      "outputs": [
        {
          "internalType": "bytes32",
          "name": "",
          "type": "bytes32"
        }
      ],
      "stateMutability": "payable",
      "type": "function"
    },
    {
      "inputs": [
        {
          "internalType": "uint32",
          "name": "",
          "type": "uint32"
        },
        {
          "internalType": "bytes32",
          "name": "",
          "type": "bytes32"
        },
        {
          "internalType": "uint256",
          "name": "",
          "type": "uint256"
        }
      ],
      "name": "transferRemote",
      "outputs": [
        {
          "internalType": "bytes32",
          "name": "",
          "type": "bytes32"
        }
      ],
      "stateMutability": "payable",
      "type": "function"
    },
    {
      "inputs": [
        {
          "internalType": "uint32",
          "name": "_domain",
          "type": "uint32"
        }
      ],
      "name": "unenrollRemoteRouter",
      "outputs": [],
      "stateMutability": "nonpayable",
      "type": "function"
    },
    {
      "inputs": [
        {
          "internalType": "uint32[]",
          "name": "_domains",
          "type": "uint32[]"
        }
      ],
      "name": "unenrollRemoteRouters",
      "outputs": [],
      "stateMutability": "nonpayable",
      "type": "function"
    },
    {
      "stateMutability": "payable",
      "type": "receive"
    }
  ],
  "transactionHash": "0x551dba77c5ab64317c3cf3eb9ce27071013111d9d311be3de8a38ca33c7ee199",
  "args": [
    "0xB428F40F48ab4f4609A8027c910Cd49922e2ACED",
    "0x34FFfC1825e7AAA04A64b29207B891D331111054",
    "0x2f71ef2c0000000000000000000000000000000000000000000000000000000000000000000000000000000000000000bfcc8c8ddcd66f331868a2201609f4b4b6ae60d1000000000000000000000000e223825497c435baeaf318f03d33ec704954028a000000000000000000000000000000000000000000000000000000003b9aca000000000000000000000000000000000000000000000000000000000000000005"
  ],
  "numDeployments": 1,
  "solcInputHash": "933ec168d75e7a52880d8497f677542b",
  "bytecode": "0x60e060405234801561001057600080fd5b50604051614330380380614330833981810160405281019061003291906102ea565b81818181808080808061004a8161016860201b60201c565b610089576040517f08c379a000000000000000000000000000000000000000000000000000000000815260040161008090610387565b60405180910390fd5b8173ffffffffffffffffffffffffffffffffffffffff1660808173ffffffffffffffffffffffffffffffffffffffff168152505060805173ffffffffffffffffffffffffffffffffffffffff16638d3638f46040518163ffffffff1660e01b8152600401602060405180830381865afa15801561010a573d6000803e3d6000fd5b505050506040513d601f19601f8201168201806040525081019061012e91906103e3565b63ffffffff1660a08163ffffffff16815250506101503361018b60201b60201c565b50505050508160c08181525050505050505050610410565b6000808273ffffffffffffffffffffffffffffffffffffffff163b119050919050565b6000603360009054906101000a900473ffffffffffffffffffffffffffffffffffffffff16905081603360006101000a81548173ffffffffffffffffffffffffffffffffffffffff021916908373ffffffffffffffffffffffffffffffffffffffff1602179055508173ffffffffffffffffffffffffffffffffffffffff168173ffffffffffffffffffffffffffffffffffffffff167f8be0079c531659141344cd1fd0a4f28419497f9722a3daafe3b4186f6b6457e060405160405180910390a35050565b600080fd5b6000819050919050565b61026981610256565b811461027457600080fd5b50565b60008151905061028681610260565b92915050565b600073ffffffffffffffffffffffffffffffffffffffff82169050919050565b60006102b78261028c565b9050919050565b6102c7816102ac565b81146102d257600080fd5b50565b6000815190506102e4816102be565b92915050565b6000806040838503121561030157610300610251565b5b600061030f85828601610277565b9250506020610320858286016102d5565b9150509250929050565b600082825260208201905092915050565b7f4d61696c626f78436c69656e743a20696e76616c6964206d61696c626f780000600082015250565b6000610371601e8361032a565b915061037c8261033b565b602082019050919050565b600060208201905081810360008301526103a081610364565b9050919050565b600063ffffffff82169050919050565b6103c0816103a7565b81146103cb57600080fd5b50565b6000815190506103dd816103b7565b92915050565b6000602082840312156103f9576103f8610251565b5b6000610407848285016103ce565b91505092915050565b60805160a05160c051613ece610462600039600081816113bb01528181611d32015261221201526000610e24015260008181610b9b0152818161119f01528181611e7d01526122530152613ece6000f3fe6080604052600436106101e75760003560e01c80638d3638f411610102578063d5438eae11610095578063f2ed8c5311610064578063f2ed8c5314610701578063f2fde38b1461073e578063f51e181a14610767578063ffa1ad74146107925761023c565b8063d5438eae14610659578063de523cf314610684578063e9198bf9146106af578063efae508a146106d85761023c565b8063b49c53a7116100d1578063b49c53a7146105b3578063be0d61ed146105dc578063bf2f427914610607578063c0c53b8b146106305761023c565b80638d3638f4146105095780638da5cb5b1461053457806393c448471461055f578063b1bd64361461058a5761023c565b806370a082311161017a5780637f5a7c7b116101495780637f5a7c7b1461045357806381b4e8b41461047e5780638ac05ffb146104ae5780638cc6b383146104de5761023c565b806370a0823114610399578063715018a6146103d657806371a15b38146103ed578063775313a1146104165761023c565b8063440df4f4116101b6578063440df4f4146102f957806349d462ef1461032457806351debffc1461034d57806356d5d4751461037d5761023c565b80630e72cc06146102415780632ead72f61461026a5780632f71ef2c146102a75780633dfd3873146102d05761023c565b3661023c573373ffffffffffffffffffffffffffffffffffffffff167f5d8bc849764969eb1bcc6d0a2f55999d0167c1ccec240a4f39cf664ca9c4148e34604051610232919061271b565b60405180910390a2005b600080fd5b34801561024d57600080fd5b506102686004803603810190610263919061279e565b6107bd565b005b34801561027657600080fd5b50610291600480360381019061028c9190612807565b6108c1565b60405161029e919061284d565b60405180910390f35b3480156102b357600080fd5b506102ce60048036038101906102c99190612894565b6108ea565b005b3480156102dc57600080fd5b506102f760048036038101906102f2919061279e565b610a3a565b005b34801561030557600080fd5b5061030e610b3e565b60405161031b91906129cd565b60405180910390f35b34801561033057600080fd5b5061034b600480360381019061034691906129ef565b610b4f565b005b61036760048036038101906103629190612ac0565b610b65565b604051610374919061284d565b60405180910390f35b61039760048036038101906103929190612b5a565b610b99565b005b3480156103a557600080fd5b506103c060048036038101906103bb919061279e565b610c89565b6040516103cd919061271b565b60405180910390f35b3480156103e257600080fd5b506103eb610caa565b005b3480156103f957600080fd5b50610414600480360381019061040f9190612c24565b610cbe565b005b34801561042257600080fd5b5061043d60048036038101906104389190612807565b610d23565b60405161044a919061271b565b60405180910390f35b34801561045f57600080fd5b50610468610d3b565b6040516104759190612cd0565b60405180910390f35b61049860048036038101906104939190612ceb565b610d61565b6040516104a5919061284d565b60405180910390f35b6104c860048036038101906104c39190612d3e565b610d95565b6040516104d5919061284d565b60405180910390f35b3480156104ea57600080fd5b506104f3610e1c565b604051610500919061271b565b60405180910390f35b34801561051557600080fd5b5061051e610e22565b60405161052b9190612d7a565b60405180910390f35b34801561054057600080fd5b50610549610e46565b6040516105569190612da4565b60405180910390f35b34801561056b57600080fd5b50610574610e70565b6040516105819190612e4f565b60405180910390f35b34801561059657600080fd5b506105b160048036038101906105ac9190612ec7565b610ea9565b005b3480156105bf57600080fd5b506105da60048036038101906105d59190612f14565b610f28565b005b3480156105e857600080fd5b506105f1610f3e565b6040516105fe9190612d7a565b60405180910390f35b34801561061357600080fd5b5061062e60048036038101906106299190612f54565b610f54565b005b34801561063c57600080fd5b5061065760048036038101906106529190612f94565b611059565b005b34801561066557600080fd5b5061066e61119d565b60405161067b9190613008565b60405180910390f35b34801561069057600080fd5b506106996111c1565b6040516106a69190613044565b60405180910390f35b3480156106bb57600080fd5b506106d660048036038101906106d191906130b5565b6111e7565b005b3480156106e457600080fd5b506106ff60048036038101906106fa9190612807565b6112b0565b005b34801561070d57600080fd5b5061072860048036038101906107239190612807565b6112c4565b604051610735919061271b565b60405180910390f35b34801561074a57600080fd5b506107656004803603810190610760919061279e565b611336565b005b34801561077357600080fd5b5061077c6113b9565b604051610789919061271b565b60405180910390f35b34801561079e57600080fd5b506107a76113dd565b6040516107b49190613152565b60405180910390f35b806107c7816114a2565b806107fe5750600073ffffffffffffffffffffffffffffffffffffffff168173ffffffffffffffffffffffffffffffffffffffff16145b61083d576040517f08c379a0000000000000000000000000000000000000000000000000000000008152600401610834906131df565b60405180910390fd5b6108456114c5565b81606660006101000a81548173ffffffffffffffffffffffffffffffffffffffff021916908373ffffffffffffffffffffffffffffffffffffffff1602179055507fc47cbcc588c67679e52261c45cc315e56562f8d0ccaba16facb9093ff9498799826040516108b59190612da4565b60405180910390a15050565b6000806108de8363ffffffff16609761154390919063ffffffff16565b91505080915050919050565b60008060019054906101000a900460ff1615905080801561091b5750600160008054906101000a900460ff1660ff16105b80610948575061092a3061156a565b1580156109475750600160008054906101000a900460ff1660ff16145b5b610987576040517f08c379a000000000000000000000000000000000000000000000000000000000815260040161097e90613271565b60405180910390fd5b60016000806101000a81548160ff021916908360ff16021790555080156109c4576001600060016101000a81548160ff0219169083151502179055505b6109cf86868661158d565b6109d98383611604565b8015610a325760008060016101000a81548160ff0219169083151502179055507f7f26b83ff96e1f2b6a682f133852f6798a09c465da95921460cefb38474024986001604051610a2991906132cc565b60405180910390a15b505050505050565b80610a44816114a2565b80610a7b5750600073ffffffffffffffffffffffffffffffffffffffff168173ffffffffffffffffffffffffffffffffffffffff16145b610aba576040517f08c379a0000000000000000000000000000000000000000000000000000000008152600401610ab1906131df565b60405180910390fd5b610ac26114c5565b81606560006101000a81548173ffffffffffffffffffffffffffffffffffffffff021916908373ffffffffffffffffffffffffffffffffffffffff1602179055507f4eab7b127c764308788622363ad3e9532de3dfba7845bd4f84c125a22544255a82604051610b329190612da4565b60405180910390a15050565b6060610b4a609761169e565b905090565b610b576114c5565b610b618282611761565b5050565b60006040517fb318c26b00000000000000000000000000000000000000000000000000000000815260040160405180910390fd5b7f000000000000000000000000000000000000000000000000000000000000000073ffffffffffffffffffffffffffffffffffffffff163373ffffffffffffffffffffffffffffffffffffffff1614610c27576040517f08c379a0000000000000000000000000000000000000000000000000000000008152600401610c1e90613359565b60405180910390fd5b6000610c32856117c2565b9050838114610c76576040517f08c379a0000000000000000000000000000000000000000000000000000000008152600401610c6d906133eb565b60405180910390fd5b610c828585858561183f565b5050505050565b60008173ffffffffffffffffffffffffffffffffffffffff16319050919050565b610cb26114c5565b610cbc60006118d1565b565b610cc66114c5565b600082829050905060005b81811015610d1d57610d09848483818110610cef57610cee61340b565b5b9050602002016020810190610d049190612807565b611997565b600181610d169190613469565b9050610cd1565b50505050565b60ca6020528060005260406000206000915090505481565b606560009054906101000a900473ffffffffffffffffffffffffffffffffffffffff1681565b60006040517fb318c26b00000000000000000000000000000000000000000000000000000000815260040160405180910390fd5b600060cb54341015610de25760cb54346040517f04cb94e5000000000000000000000000000000000000000000000000000000008152600401610dd992919061349d565b60405180910390fd5b600060cb5434610df291906134c6565b9050610e1460cc60009054906101000a900463ffffffff168460cb54846119ff565b915050919050565b60cb5481565b7f000000000000000000000000000000000000000000000000000000000000000081565b6000603360009054906101000a900473ffffffffffffffffffffffffffffffffffffffff16905090565b6040518060400160405280600581526020017f372e312e3800000000000000000000000000000000000000000000000000000081525081565b610eb16114c5565b60005b82829050811015610f2357610f0f838383818110610ed557610ed461340b565b5b9050604002016000016020810190610eed9190612807565b848484818110610f0057610eff61340b565b5b90506040020160200135611761565b600181610f1c9190613469565b9050610eb4565b505050565b610f306114c5565b610f3a8282611a43565b5050565b60cc60009054906101000a900463ffffffff1681565b6002600060019054906101000a900460ff16158015610f8557508060ff1660008054906101000a900460ff1660ff16105b610fc4576040517f08c379a0000000000000000000000000000000000000000000000000000000008152600401610fbb90613271565b60405180910390fd5b806000806101000a81548160ff021916908360ff1602179055506001600060016101000a81548160ff0219169083151502179055506110038383611604565b60008060016101000a81548160ff0219169083151502179055507f7f26b83ff96e1f2b6a682f133852f6798a09c465da95921460cefb38474024988160405161104c9190613152565b60405180910390a1505050565b60008060019054906101000a900460ff1615905080801561108a5750600160008054906101000a900460ff1660ff16105b806110b757506110993061156a565b1580156110b65750600160008054906101000a900460ff1660ff16145b5b6110f6576040517f08c379a00000000000000000000000000000000000000000000000000000000081526004016110ed90613271565b60405180910390fd5b60016000806101000a81548160ff021916908360ff1602179055508015611133576001600060016101000a81548160ff0219169083151502179055505b61113e84848461158d565b80156111975760008060016101000a81548160ff0219169083151502179055507f7f26b83ff96e1f2b6a682f133852f6798a09c465da95921460cefb3847402498600160405161118e91906132cc565b60405180910390a15b50505050565b7f000000000000000000000000000000000000000000000000000000000000000081565b606660009054906101000a900473ffffffffffffffffffffffffffffffffffffffff1681565b6111ef6114c5565b818190508484905014611237576040517f08c379a000000000000000000000000000000000000000000000000000000000815260040161122e90613546565b60405180910390fd5b600084849050905060005b818110156112a8576112948686838181106112605761125f61340b565b5b90506020020160208101906112759190612807565b8585848181106112885761128761340b565b5b90506020020135611a43565b6001816112a19190613469565b9050611242565b505050505050565b6112b86114c5565b6112c181611997565b50565b600061132f826113076000801b7fffffffffffffffffffffffffffffffffffffffffffffffffffffffffffffffff60405180602001604052806000815250611a63565b606560009054906101000a900473ffffffffffffffffffffffffffffffffffffffff16611a92565b9050919050565b61133e6114c5565b600073ffffffffffffffffffffffffffffffffffffffff168173ffffffffffffffffffffffffffffffffffffffff16036113ad576040517f08c379a00000000000000000000000000000000000000000000000000000000081526004016113a4906135d8565b60405180910390fd5b6113b6816118d1565b50565b7f000000000000000000000000000000000000000000000000000000000000000081565b600281565b600060019054906101000a900460ff1615611432576040517f08c379a00000000000000000000000000000000000000000000000000000000081526004016114299061366a565b60405180910390fd5b60ff801660008054906101000a900460ff1660ff16146114a05760ff6000806101000a81548160ff021916908360ff1602179055507f7f26b83ff96e1f2b6a682f133852f6798a09c465da95921460cefb384740249860ff6040516114979190613152565b60405180910390a15b565b6000808273ffffffffffffffffffffffffffffffffffffffff163b119050919050565b6114cd611ab1565b73ffffffffffffffffffffffffffffffffffffffff166114eb610e46565b73ffffffffffffffffffffffffffffffffffffffff1614611541576040517f08c379a0000000000000000000000000000000000000000000000000000000008152600401611538906136d6565b60405180910390fd5b565b60008061155f8360001b85600001611ab990919063ffffffff16565b915091509250929050565b6000808273ffffffffffffffffffffffffffffffffffffffff163b119050919050565b600060019054906101000a900460ff166115dc576040517f08c379a00000000000000000000000000000000000000000000000000000000081526004016115d390613768565b60405180910390fd5b6115e4611b08565b6115ed83610a3a565b6115f6826107bd565b6115ff816118d1565b505050565b8160cb819055507f3ff866e5ec857d83f0a1b06183af69f1b685c0f6ebd98e0d69e2a83e5744ea918260405161163a919061271b565b60405180910390a18060cc60006101000a81548163ffffffff021916908363ffffffff1602179055507fc79df088c10af6f96be7470ab75e14b6b059f940a473a17701aa711343c63f8a816040516116929190612d7a565b60405180910390a15050565b606060006116ab83611b61565b9050805167ffffffffffffffff8111156116c8576116c7613788565b5b6040519080825280602002602001820160405280156116f65781602001602082028036833780820191505090505b50915060005b815181101561175a578181815181106117185761171761340b565b5b60200260200101518382815181106117335761173261340b565b5b602002602001019063ffffffff16908163ffffffff168152505080806001019150506116fc565b5050919050565b8060ca60008463ffffffff1663ffffffff168152602001908152602001600020819055507fc3de732a98b24a2b5c6f67e8a7fb057ffc14046b83968a2c73e4148d2fba978b82826040516117b69291906137b7565b60405180910390a15050565b60008060006117e18463ffffffff16609761154390919063ffffffff16565b9150915081156117f557809250505061183a565b6117fe84611c18565b6040517f08c379a00000000000000000000000000000000000000000000000000000000081526004016118319190612e4f565b60405180910390fd5b919050565b600061184b8383611c4f565b905060006118598484611c78565b90503660006118688686611ca4565b9150915061188861187885611cc5565b61188185611d2e565b8484611d63565b838863ffffffff167fba20947a325f450d232530e5f5fce293e7963499d5309a07cee84a269f2f15a6856040516118bf919061271b565b60405180910390a35050505050505050565b6000603360009054906101000a900473ffffffffffffffffffffffffffffffffffffffff16905081603360006101000a81548173ffffffffffffffffffffffffffffffffffffffff021916908373ffffffffffffffffffffffffffffffffffffffff1602179055508173ffffffffffffffffffffffffffffffffffffffff168173ffffffffffffffffffffffffffffffffffffffff167f8be0079c531659141344cd1fd0a4f28419497f9722a3daafe3b4186f6b6457e060405160405180910390a35050565b6119b18163ffffffff166097611d7390919063ffffffff16565b6119ba82611c18565b906119fb576040517f08c379a00000000000000000000000000000000000000000000000000000000081526004016119f29190612e4f565b60405180910390fd5b5050565b6000611a3985858585611a118a611d96565b606560009054906101000a900473ffffffffffffffffffffffffffffffffffffffff16611dc7565b9050949350505050565b611a5f8263ffffffff16826097611e4c9092919063ffffffff16565b5050565b6060838383604051602001611a7a93929190613869565b60405160208183030381529060405290509392505050565b6000611aa88484611aa287611d96565b85611e6d565b90509392505050565b600033905090565b60008060008460020160008581526020019081526020016000205490506000801b8103611af857611aea8585611f28565b6000801b9250925050611b01565b60018192509250505b9250929050565b600060019054906101000a900460ff16611b57576040517f08c379a0000000000000000000000000000000000000000000000000000000008152600401611b4e90613768565b60405180910390fd5b611b5f611f48565b565b60606000611b7183600001611fa9565b90508067ffffffffffffffff811115611b8d57611b8c613788565b5b604051908082528060200260200182016040528015611bbb5781602001602082028036833780820191505090505b50915060005b81811015611c1157611be28185600001600001611fbe90919063ffffffff16565b60001c838281518110611bf857611bf761340b565b5b6020026020010181815250508080600101915050611bc1565b5050919050565b6060611c298263ffffffff16611fd5565b604051602001611c399190613904565b6040516020818303038152906040529050919050565b60008282600090602092611c6593929190613934565b90611c709190613987565b905092915050565b60008282602090604092611c8e93929190613934565b90611c999190613987565b60001c905092915050565b36600083836040908092611cba93929190613934565b915091509250929050565b600073ffffffffffffffffffffffffffffffffffffffff80168260001c1115611d23576040517f08c379a0000000000000000000000000000000000000000000000000000000008152600401611d1a90613a58565b60405180910390fd5b8160001c9050919050565b60007f000000000000000000000000000000000000000000000000000000000000000082611d5c9190613aa7565b9050919050565b611d6d84846120a3565b50505050565b6000611d8e8260001b8460000161219790919063ffffffff16565b905092915050565b6060611dc060ca60008463ffffffff1663ffffffff168152602001908152602001600020546121d0565b9050919050565b600080611dd3866121f5565b90506000611de08761220e565b90506000611def898385611a63565b9050611dfe8a88838989612243565b9350888a63ffffffff167fd229aacb94204188fe8042965fa6b269c62dc5818b21238779ab64bdd17efeec84604051611e37919061271b565b60405180910390a35050509695505050505050565b611e678260001b82856000016123029092919063ffffffff16565b50505050565b600080611e79866117c2565b90507f000000000000000000000000000000000000000000000000000000000000000073ffffffffffffffffffffffffffffffffffffffff166381d2ea9587838888886040518663ffffffff1660e01b8152600401611edc959493929190613b22565b602060405180830381865afa158015611ef9573d6000803e3d6000fd5b505050506040513d601f19601f82011682018060405250810190611f1d9190613b98565b915050949350505050565b6000611f40828460000161233d90919063ffffffff16565b905092915050565b600060019054906101000a900460ff16611f97576040517f08c379a0000000000000000000000000000000000000000000000000000000008152600401611f8e90613768565b60405180910390fd5b611fa7611fa2611ab1565b6118d1565b565b6000611fb782600001612354565b9050919050565b6000611fcd8360000183612369565b905092915050565b606060006001611fe484612394565b01905060008167ffffffffffffffff81111561200357612002613788565b5b6040519080825280601f01601f1916602001820160405280156120355781602001600182028036833780820191505090505b509050600082602001820190505b600115612098578080600190039150507f3031323334353637383961626364656600000000000000000000000000000000600a86061a8153600a858161208c5761208b613a78565b5b04945060008503612043575b819350505050919050565b804710156120e6576040517f08c379a00000000000000000000000000000000000000000000000000000000081526004016120dd90613c11565b60405180910390fd5b60008273ffffffffffffffffffffffffffffffffffffffff168260405161210c90613c57565b60006040518083038185875af1925050503d8060008114612149576040519150601f19603f3d011682016040523d82523d6000602084013e61214e565b606091505b5050905080612192576040517f08c379a000000000000000000000000000000000000000000000000000000000815260040161218990613cde565b60405180910390fd5b505050565b6000826002016000838152602001908152602001600020600090556121c882846000016124e790919063ffffffff16565b905092915050565b60606121ee60008333604051806020016040528060008152506124fe565b9050919050565b6060604051806020016040528060008152509050919050565b60007f00000000000000000000000000000000000000000000000000000000000000008261223c9190613cfe565b9050919050565b60008061224f876117c2565b90507f000000000000000000000000000000000000000000000000000000000000000073ffffffffffffffffffffffffffffffffffffffff166310b83dc08789848989896040518763ffffffff1660e01b81526004016122b3959493929190613b22565b60206040518083038185885af11580156122d1573d6000803e3d6000fd5b50505050506040513d601f19601f820116820180604052508101906122f69190613d55565b91505095945050505050565b60008184600201600085815260200190815260200160002081905550612334838560000161253390919063ffffffff16565b90509392505050565b600061234c836000018361254a565b905092915050565b60006123628260000161256d565b9050919050565b60008260000182815481106123815761238061340b565b5b9060005260206000200154905092915050565b600080600090507a184f03e93ff9f4daa797ed6e38ed64bf6a1f01000000000000000083106123f2577a184f03e93ff9f4daa797ed6e38ed64bf6a1f01000000000000000083816123e8576123e7613a78565b5b0492506040810190505b6d04ee2d6d415b85acef8100000000831061242f576d04ee2d6d415b85acef8100000000838161242557612424613a78565b5b0492506020810190505b662386f26fc10000831061245e57662386f26fc10000838161245457612453613a78565b5b0492506010810190505b6305f5e1008310612487576305f5e100838161247d5761247c613a78565b5b0492506008810190505b61271083106124ac5761271083816124a2576124a1613a78565b5b0492506004810190505b606483106124cf57606483816124c5576124c4613a78565b5b0492506002810190505b600a83106124de576001810190505b80915050919050565b60006124f6836000018361257e565b905092915050565b606060018585858560405160200161251a959493929190613e0e565b6040516020818303038152906040529050949350505050565b60006125428360000183612692565b905092915050565b600080836001016000848152602001908152602001600020541415905092915050565b600081600001805490509050919050565b600080836001016000848152602001908152602001600020549050600081146126865760006001826125b091906134c6565b90506000600186600001805490506125c891906134c6565b90508181146126375760008660000182815481106125e9576125e861340b565b5b906000526020600020015490508087600001848154811061260d5761260c61340b565b5b90600052602060002001819055508387600101600083815260200190815260200160002081905550505b8560000180548061264b5761264a613e69565b5b60019003818190600052602060002001600090559055856001016000868152602001908152602001600020600090556001935050505061268c565b60009150505b92915050565b600061269e838361254a565b6126f75782600001829080600181540180825580915050600190039060005260206000200160009091909190915055826000018054905083600101600084815260200190815260200160002081905550600190506126fc565b600090505b92915050565b6000819050919050565b61271581612702565b82525050565b6000602082019050612730600083018461270c565b92915050565b600080fd5b600080fd5b600073ffffffffffffffffffffffffffffffffffffffff82169050919050565b600061276b82612740565b9050919050565b61277b81612760565b811461278657600080fd5b50565b60008135905061279881612772565b92915050565b6000602082840312156127b4576127b3612736565b5b60006127c284828501612789565b91505092915050565b600063ffffffff82169050919050565b6127e4816127cb565b81146127ef57600080fd5b50565b600081359050612801816127db565b92915050565b60006020828403121561281d5761281c612736565b5b600061282b848285016127f2565b91505092915050565b6000819050919050565b61284781612834565b82525050565b6000602082019050612862600083018461283e565b92915050565b61287181612702565b811461287c57600080fd5b50565b60008135905061288e81612868565b92915050565b600080600080600060a086880312156128b0576128af612736565b5b60006128be88828901612789565b95505060206128cf88828901612789565b94505060406128e088828901612789565b93505060606128f18882890161287f565b9250506080612902888289016127f2565b9150509295509295909350565b600081519050919050565b600082825260208201905092915050565b6000819050602082019050919050565b612944816127cb565b82525050565b6000612956838361293b565b60208301905092915050565b6000602082019050919050565b600061297a8261290f565b612984818561291a565b935061298f8361292b565b8060005b838110156129c05781516129a7888261294a565b97506129b283612962565b925050600181019050612993565b5085935050505092915050565b600060208201905081810360008301526129e7818461296f565b905092915050565b60008060408385031215612a0657612a05612736565b5b6000612a14858286016127f2565b9250506020612a258582860161287f565b9150509250929050565b612a3881612834565b8114612a4357600080fd5b50565b600081359050612a5581612a2f565b92915050565b600080fd5b600080fd5b600080fd5b60008083601f840112612a8057612a7f612a5b565b5b8235905067ffffffffffffffff811115612a9d57612a9c612a60565b5b602083019150836001820283011115612ab957612ab8612a65565b5b9250929050565b60008060008060008060a08789031215612add57612adc612736565b5b6000612aeb89828a016127f2565b9650506020612afc89828a01612a46565b9550506040612b0d89828a0161287f565b945050606087013567ffffffffffffffff811115612b2e57612b2d61273b565b5b612b3a89828a01612a6a565b93509350506080612b4d89828a01612789565b9150509295509295509295565b60008060008060608587031215612b7457612b73612736565b5b6000612b82878288016127f2565b9450506020612b9387828801612a46565b935050604085013567ffffffffffffffff811115612bb457612bb361273b565b5b612bc087828801612a6a565b925092505092959194509250565b60008083601f840112612be457612be3612a5b565b5b8235905067ffffffffffffffff811115612c0157612c00612a60565b5b602083019150836020820283011115612c1d57612c1c612a65565b5b9250929050565b60008060208385031215612c3b57612c3a612736565b5b600083013567ffffffffffffffff811115612c5957612c5861273b565b5b612c6585828601612bce565b92509250509250929050565b6000819050919050565b6000612c96612c91612c8c84612740565b612c71565b612740565b9050919050565b6000612ca882612c7b565b9050919050565b6000612cba82612c9d565b9050919050565b612cca81612caf565b82525050565b6000602082019050612ce56000830184612cc1565b92915050565b600080600060608486031215612d0457612d03612736565b5b6000612d12868287016127f2565b9350506020612d2386828701612a46565b9250506040612d348682870161287f565b9150509250925092565b600060208284031215612d5457612d53612736565b5b6000612d6284828501612a46565b91505092915050565b612d74816127cb565b82525050565b6000602082019050612d8f6000830184612d6b565b92915050565b612d9e81612760565b82525050565b6000602082019050612db96000830184612d95565b92915050565b600081519050919050565b600082825260208201905092915050565b60005b83811015612df9578082015181840152602081019050612dde565b60008484015250505050565b6000601f19601f8301169050919050565b6000612e2182612dbf565b612e2b8185612dca565b9350612e3b818560208601612ddb565b612e4481612e05565b840191505092915050565b60006020820190508181036000830152612e698184612e16565b905092915050565b60008083601f840112612e8757612e86612a5b565b5b8235905067ffffffffffffffff811115612ea457612ea3612a60565b5b602083019150836040820283011115612ec057612ebf612a65565b5b9250929050565b60008060208385031215612ede57612edd612736565b5b600083013567ffffffffffffffff811115612efc57612efb61273b565b5b612f0885828601612e71565b92509250509250929050565b60008060408385031215612f2b57612f2a612736565b5b6000612f39858286016127f2565b9250506020612f4a85828601612a46565b9150509250929050565b60008060408385031215612f6b57612f6a612736565b5b6000612f798582860161287f565b9250506020612f8a858286016127f2565b9150509250929050565b600080600060608486031215612fad57612fac612736565b5b6000612fbb86828701612789565b9350506020612fcc86828701612789565b9250506040612fdd86828701612789565b9150509250925092565b6000612ff282612c9d565b9050919050565b61300281612fe7565b82525050565b600060208201905061301d6000830184612ff9565b92915050565b600061302e82612c9d565b9050919050565b61303e81613023565b82525050565b60006020820190506130596000830184613035565b92915050565b60008083601f84011261307557613074612a5b565b5b8235905067ffffffffffffffff81111561309257613091612a60565b5b6020830191508360208202830111156130ae576130ad612a65565b5b9250929050565b600080600080604085870312156130cf576130ce612736565b5b600085013567ffffffffffffffff8111156130ed576130ec61273b565b5b6130f987828801612bce565b9450945050602085013567ffffffffffffffff81111561311c5761311b61273b565b5b6131288782880161305f565b925092505092959194509250565b600060ff82169050919050565b61314c81613136565b82525050565b60006020820190506131676000830184613143565b92915050565b7f4d61696c626f78436c69656e743a20696e76616c696420636f6e74726163742060008201527f73657474696e6700000000000000000000000000000000000000000000000000602082015250565b60006131c9602783612dca565b91506131d48261316d565b604082019050919050565b600060208201905081810360008301526131f8816131bc565b9050919050565b7f496e697469616c697a61626c653a20636f6e747261637420697320616c72656160008201527f647920696e697469616c697a6564000000000000000000000000000000000000602082015250565b600061325b602e83612dca565b9150613266826131ff565b604082019050919050565b6000602082019050818103600083015261328a8161324e565b9050919050565b6000819050919050565b60006132b66132b16132ac84613291565b612c71565b613136565b9050919050565b6132c68161329b565b82525050565b60006020820190506132e160008301846132bd565b92915050565b7f4d61696c626f78436c69656e743a2073656e646572206e6f74206d61696c626f60008201527f7800000000000000000000000000000000000000000000000000000000000000602082015250565b6000613343602183612dca565b915061334e826132e7565b604082019050919050565b6000602082019050818103600083015261337281613336565b9050919050565b7f456e726f6c6c656420726f7574657220646f6573206e6f74206d61746368207360008201527f656e646572000000000000000000000000000000000000000000000000000000602082015250565b60006133d5602583612dca565b91506133e082613379565b604082019050919050565b60006020820190508181036000830152613404816133c8565b9050919050565b7f4e487b7100000000000000000000000000000000000000000000000000000000600052603260045260246000fd5b7f4e487b7100000000000000000000000000000000000000000000000000000000600052601160045260246000fd5b600061347482612702565b915061347f83612702565b92508282019050808211156134975761349661343a565b5b92915050565b60006040820190506134b2600083018561270c565b6134bf602083018461270c565b9392505050565b60006134d182612702565b91506134dc83612702565b92508282039050818111156134f4576134f361343a565b5b92915050565b7f216c656e67746800000000000000000000000000000000000000000000000000600082015250565b6000613530600783612dca565b915061353b826134fa565b602082019050919050565b6000602082019050818103600083015261355f81613523565b9050919050565b7f4f776e61626c653a206e6577206f776e657220697320746865207a65726f206160008201527f6464726573730000000000000000000000000000000000000000000000000000602082015250565b60006135c2602683612dca565b91506135cd82613566565b604082019050919050565b600060208201905081810360008301526135f1816135b5565b9050919050565b7f496e697469616c697a61626c653a20636f6e747261637420697320696e69746960008201527f616c697a696e6700000000000000000000000000000000000000000000000000602082015250565b6000613654602783612dca565b915061365f826135f8565b604082019050919050565b6000602082019050818103600083015261368381613647565b9050919050565b7f4f776e61626c653a2063616c6c6572206973206e6f7420746865206f776e6572600082015250565b60006136c0602083612dca565b91506136cb8261368a565b602082019050919050565b600060208201905081810360008301526136ef816136b3565b9050919050565b7f496e697469616c697a61626c653a20636f6e7472616374206973206e6f74206960008201527f6e697469616c697a696e67000000000000000000000000000000000000000000602082015250565b6000613752602b83612dca565b915061375d826136f6565b604082019050919050565b6000602082019050818103600083015261378181613745565b9050919050565b7f4e487b7100000000000000000000000000000000000000000000000000000000600052604160045260246000fd5b60006040820190506137cc6000830185612d6b565b6137d9602083018461270c565b9392505050565b6000819050919050565b6137fb6137f682612834565b6137e0565b82525050565b6000819050919050565b61381c61381782612702565b613801565b82525050565b600081519050919050565b600081905092915050565b600061384382613822565b61384d818561382d565b935061385d818560208601612ddb565b80840191505092915050565b600061387582866137ea565b602082019150613885828561380b565b6020820191506138958284613838565b9150819050949350505050565b7f4e6f20726f7574657220656e726f6c6c656420666f7220646f6d61696e3a2000815250565b600081905092915050565b60006138de82612dbf565b6138e881856138c8565b93506138f8818560208601612ddb565b80840191505092915050565b600061390f826138a2565b601f8201915061391f82846138d3565b915081905092915050565b600080fd5b600080fd5b600080858511156139485761394761392a565b5b838611156139595761395861392f565b5b6001850283019150848603905094509492505050565b600082905092915050565b600082821b905092915050565b6000613993838361396f565b8261399e8135612834565b925060208210156139de576139d97fffffffffffffffffffffffffffffffffffffffffffffffffffffffffffffffff8360200360080261397a565b831692505b505092915050565b7f5479706543617374733a2062797465733332546f41646472657373206f76657260008201527f666c6f7700000000000000000000000000000000000000000000000000000000602082015250565b6000613a42602483612dca565b9150613a4d826139e6565b604082019050919050565b60006020820190508181036000830152613a7181613a35565b9050919050565b7f4e487b7100000000000000000000000000000000000000000000000000000000600052601260045260246000fd5b6000613ab282612702565b9150613abd83612702565b925082613acd57613acc613a78565b5b828204905092915050565b600082825260208201905092915050565b6000613af482613822565b613afe8185613ad8565b9350613b0e818560208601612ddb565b613b1781612e05565b840191505092915050565b600060a082019050613b376000830188612d6b565b613b44602083018761283e565b8181036040830152613b568186613ae9565b90508181036060830152613b6a8185613ae9565b9050613b796080830184612cc1565b9695505050505050565b600081519050613b9281612868565b92915050565b600060208284031215613bae57613bad612736565b5b6000613bbc84828501613b83565b91505092915050565b7f416464726573733a20696e73756666696369656e742062616c616e6365000000600082015250565b6000613bfb601d83612dca565b9150613c0682613bc5565b602082019050919050565b60006020820190508181036000830152613c2a81613bee565b9050919050565b50565b6000613c4160008361382d565b9150613c4c82613c31565b600082019050919050565b6000613c6282613c34565b9150819050919050565b7f416464726573733a20756e61626c6520746f2073656e642076616c75652c207260008201527f6563697069656e74206d61792068617665207265766572746564000000000000602082015250565b6000613cc8603a83612dca565b9150613cd382613c6c565b604082019050919050565b60006020820190508181036000830152613cf781613cbb565b9050919050565b6000613d0982612702565b9150613d1483612702565b9250828202613d2281612702565b91508282048414831517613d3957613d3861343a565b5b5092915050565b600081519050613d4f81612a2f565b92915050565b600060208284031215613d6b57613d6a612736565b5b6000613d7984828501613d40565b91505092915050565b600061ffff82169050919050565b60008160f01b9050919050565b6000613da882613d90565b9050919050565b613dc0613dbb82613d82565b613d9d565b82525050565b60008160601b9050919050565b6000613dde82613dc6565b9050919050565b6000613df082613dd3565b9050919050565b613e08613e0382612760565b613de5565b82525050565b6000613e1a8288613daf565b600282019150613e2a828761380b565b602082019150613e3a828661380b565b602082019150613e4a8285613df7565b601482019150613e5a8284613838565b91508190509695505050505050565b7f4e487b7100000000000000000000000000000000000000000000000000000000600052603160045260246000fdfea264697066735822122070fd5befaab9af34180095dd928d225db08523cf82ca4d63aab43e1943941e6864736f6c634300081e0033",
  "libraries": {},
  "devdoc": {
    "events": {
      "Donation(address,uint256)": {
        "details": "Emitted when native tokens are donated to the contract.",
        "params": {
          "amount": "The amount of native tokens donated.",
          "sender": "The address of the sender."
        }
      },
      "Initialized(uint8)": {
        "details": "Triggered when the contract has been initialized or reinitialized."
      },
      "ReceivedTransferRemote(uint32,bytes32,uint256)": {
        "details": "Emitted on `_handle` when a transfer message is processed.",
        "params": {
          "amount": "The amount of tokens received from the remote sender.",
          "origin": "The identifier of the origin chain.",
          "recipient": "The address of the recipient on the destination chain."
        }
      },
      "SentTransferRemote(uint32,bytes32,uint256)": {
        "details": "Emitted on `transferRemote` when a transfer message is dispatched.",
        "params": {
          "amount": "The amount of tokens sent in to the remote recipient.",
          "destination": "The identifier of the destination chain.",
          "recipient": "The address of the recipient on the destination chain."
        }
      }
    },
    "kind": "dev",
    "methods": {
      "enrollRemoteRouter(uint32,bytes32)": {
        "params": {
          "_domain": "The domain of the remote Application Router",
          "_router": "The address of the remote Application Router"
        }
      },
      "enrollRemoteRouters(uint32[],bytes32[])": {
        "params": {
          "_addresses": "The addresses of the remote Application Routers",
          "_domains": "The domains of the remote Application Routers"
        }
      },
      "handle(uint32,bytes32,bytes)": {
        "params": {
          "_message": "The message",
          "_origin": "The origin domain",
          "_sender": "The sender address"
        }
      },
      "initialize(address,address,address)": {
        "params": {
          "_hook": "The post-dispatch hook contract.",
          "_interchainSecurityModule": "The interchain security module contract.",
          "_owner": "The this contract."
        }
      },
      "initializeV3(address,address,address,uint256,uint32)": {
        "params": {
          "_destinationDomainId": "The Hyperlane domain ID of the destination chain.",
          "_hook": "The post-dispatch hook contract.",
          "_interchainSecurityModule": "The interchain security module contract.",
          "_nftSalePrice": "The NFT sale price in Wei.",
          "_owner": "The this contract."
        }
      },
      "initiateCrossChainNftPurchase(bytes32)": {
        "details": "Entry point for a cross-chain NFT purchase.     NOTE: `msg.value` will be greater than `nftSalePrice`, since it includes funds to cover cross-chain gas payment.        The post-dispatch IGP hook handles cross-chain gas payment errors, so there is no need to check here if the user has supplied        sufficient cross-chain gas funds.",
        "params": {
          "_recipient": "The address of the recipient on the destination chain; this MUST be the user's address on the destination chain."
        }
      },
      "owner()": {
        "details": "Returns the address of the current owner."
      },
      "quoteGasPayment(uint32)": {
        "params": {
          "_destinationDomain": "The domain of the router."
        },
        "returns": {
          "_0": "_gasPayment Payment computed by the registered InterchainGasPaymaster."
        }
      },
      "renounceOwnership()": {
        "details": "Leaves the contract without owner. It will not be possible to call `onlyOwner` functions. Can only be called by the current owner. NOTE: Renouncing ownership will leave the contract without an owner, thereby disabling any functionality that is only available to the owner."
      },
      "routers(uint32)": {
        "details": "Returns 0 address if no router is enrolled for the given domain",
        "params": {
          "_domain": "The remote domain ID."
        },
        "returns": {
          "_0": "router The address of the Router contract for the given domain"
        }
      },
      "setDestinationGas((uint32,uint256)[])": {
        "params": {
          "gasConfigs": "The array of GasRouterConfig structs"
        }
      },
      "setDestinationGas(uint32,uint256)": {
        "params": {
          "domain": "The destination domain ID",
          "gas": "The gas limit"
        }
      },
      "setHook(address)": {
        "params": {
          "_hook": "The address of the hook contract."
        }
      },
      "setInterchainSecurityModule(address)": {
        "params": {
          "_module": "The address of the interchain security module contract."
        }
      },
      "transferOwnership(address)": {
        "details": "Transfers ownership of the contract to a new account (`newOwner`). Can only be called by the current owner."
      },
      "unenrollRemoteRouter(uint32)": {
        "params": {
          "_domain": "The domain of the remote Application Router"
        }
      },
      "unenrollRemoteRouters(uint32[])": {
        "params": {
          "_domains": "The domains of the remote Application Routers"
        }
      }
    },
    "version": 1
  },
  "userdoc": {
    "kind": "user",
    "methods": {
      "enrollRemoteRouter(uint32,bytes32)": {
        "notice": "Register the address of a Router contract for the same Application on a remote chain"
      },
      "enrollRemoteRouters(uint32[],bytes32[])": {
        "notice": "Batch version of `enrollRemoteRouter`"
      },
      "handle(uint32,bytes32,bytes)": {
        "notice": "Handles an incoming message"
      },
      "initialize(address,address,address)": {
        "notice": "Initializes the Hyperlane router"
      },
      "initializeV3(address,address,address,uint256,uint32)": {
        "notice": "Initializes the Hyperlane router"
      },
      "quoteGasPayment(uint32)": {
        "notice": "Returns the gas payment required to dispatch a message to the given domain's router."
      },
      "routers(uint32)": {
        "notice": "Returns the address of the Router contract for the given domain"
      },
      "setDestinationGas((uint32,uint256)[])": {
        "notice": "Sets the gas amount dispatched for each configured domain."
      },
      "setDestinationGas(uint32,uint256)": {
        "notice": "Sets the gas amount dispatched for each configured domain."
      },
      "setHook(address)": {
        "notice": "Sets the address of the application's custom hook."
      },
      "setInterchainSecurityModule(address)": {
        "notice": "Sets the address of the application's custom interchain security module."
      },
      "unenrollRemoteRouter(uint32)": {
        "notice": "Unregister the domain"
      },
      "unenrollRemoteRouters(uint32[])": {
        "notice": "Batch version of `unenrollRemoteRouter`"
      }
    },
    "version": 1
  }
}